S01900006E63705F6D6732315F3332436F6E5F3430322E7333372B
S214004000C00A0020DD4D0000D94D0000D94D00004B
S214004010DD7B0000D94D0000D94D0000D94D0000D1
S214004020D94D0000D94D0000D94D0000D94D0000F3
S214004030D94D0000385103008D420000D94D0000D4
S214004040D94D0000D94D0000D94D0000D94D0000D3
S214004050D94D0000D94D0000D94D0000D94D0000C3
S214004060D94D0000D94D0000598A0000C94400000F
S214004070D94D0000D94D0000D94D0000D94D0000A3
S214004080D94D0000D94D0000D94D0000D94D000093
S214004090D94D0000A5530000D94D0000D94D0000B1
S2140040A0D94D0000C9540000A9540000D94D0000A5
S2140040B0D94D0000D94D0000D94D0000C549030078
S2140040C06949030065490300BD410300C149030077
S2140040D06D4903008549030071490300852A0300E2
S2140040E0054A0300D94D0000D94D0000D94D000007
S2140040F0D94D0000617A0000D94D0000D94D00006E
S214004100D94D0000D94D0000D94D0000D94D000012
S214004110D94D0000D94D0000D94D0000D94D000002
S214004120D94D0000D94D0000D94D0000D94D0000F2
S214004130D94D000010B5054C237833B9044B13B1A4
S214004140044800E000BF0123237010BD880F002044
S21400415000000000E080030008B5034B1BB10349D4
S214004160034800E000BF08BD000000008C0F0020E0
S214004170E0800300A3F5803A704700BF174B002B82
S21400418008BF134B9D46FFF7F5FF00218B460F46F1
S2140041901348144A121A30F092FE0E4B002B00D031
S2140041A098470D4B002B00D09847002000210400B4
S2140041B00D000D48002802D00C4800E000BF30F08B
S2140041C013FE2000290000F035F830F0F9FD00BF9E
S2140041D0000008000000000000000000C00A0020E8
S2140041E0880F0020BC370020000000000000000000
S2140041F07047704738B543780446012B05D0022B2C
S2140042000BD000220120114603E00246002012F8DF
S214004210011BBDE8384000F025BA054615F8011B1D
S21400422000202A4600F01EFA29462078BDE83840CD
S21400423000F01BBA08B504F02CFCFFF7D9FF04F019
S21400424035FCFFF7D6FF03F031FEF8E708B508F0B7
S2140042508DFE0AF062FB11F001F80DF0EEF811F099
S21400426067FEBDE808400AF055BD10B5044621F0CB
S214004270B5FD21F031FF15F00DFD1FF05FF816F0CB
S214004280B3FA6079BDE8104008F0B6BA08F0E8BCAA
S21400429008B50748FFF7E9FF054808F07BFA04F081
S2140042A011FC044808F0A6FABDE8084016F026BB44
S2140042B0E8500300B050030000B5C3B008F0DAFBC6
S2140042C008F003FC48B100F007FA30B101A821F06D
S2140042D0ABFF10B901A800F0CBF943B05DF804FBC2
S2140042E008B50421002002F017FA0421062002F087
S2140042F013FA0821072002F00FFA0821084602F0F8
S2140043000BFA08211C2002F007FA0821242002F0EC
S21400431003FA0821252002F0FFF9002008BD00005E
S21400432007B501A802F0C6FE224A936DDB0313D43C
S214004330536B23F4FF0323F4FE4343F4BC1343F40C
S214004340A0635363136B23F4704343F44043136337
S214004350136B43F4E06313639DF80530012B0FD114
S2140043609DF8043063B94FF000531B68124B1B686E
S214004370124B1B68124B1B68124B1B68124B1B68B8
S214004380124AD2F8803043F00303C2F8803003F0BC
S21400439075F903F02DF903F08FF903F031F9FFF703
S2140043A09FFF03F014F901F09FF803B05DF804EBEB
S2140043B003F0A6BC00C000400040002000800020A3
S2140043C000C00020000001200040012000800040C6
S2140043D008B501F03FF8BDE8084000F081B808B520
S2140043E004F070F803F06AF906F0D2FDBDE8084064
S2140043F003F04ABB08B503F0BDF803F0C7F803F0B6
S214004400D7F8BDE80840FFF743BF08B500F064FAE8
S214004410BDE8084000F0B0B8704700F0A5BCFFF754
S2140044204BBF00F0B9B8012070470120704710B5A7
S21400443008F08CFB044600F0B7F9002808BF0024FB
S21400444000F0C2FC002808BF0024FFF7ECFF00289D
S21400445014BF2046002010BD38B503F017FE0446F2
S21400446008F082FB042825D002284FF0000508BF7C
S214004470012400F0B1F904281ED0022808BF012448
S21400448000F098FC042819D0022808BF012401F087
S214004490C9FD042814D0022808BF0124FFF7C5FF71
S2140044A004280FD0022808BF0124002D18BF0024BE
S2140044B0204638BD0125DCE70125E1E70125E6E7D2
S2140044C00125EBE70024F3E700F0CCBA18B1034B64
S2140044D01860002070472520704700BFFC0F0020A2
S2140044E010B5054C0549206801F064FB2068BDE85E
S2140044F01040FFF7EBBF00BFE40A0020C00A002010
S214004500014B1868704700BFFC0F002038B502F05A
S21400451044FB084D04462846002130F8022B30F0B4
S214004520CEFC002320462B8085F80234BDE83840B8
S21400453002F039BB0210002038B502F02EFB084D01
S21400454004464FF48062A81C002130F0B8FC00231B
S21400455020462B8085F80234BDE8384002F023BBA5
S2140045603C140020002208B511464A2020F080FCAA
S214004570BDE80840FFF7CABF08B5FFF7C7FFFFF75B
S214004580DBFF00F005FA0022014B1A7008BD00BFE1
S21400459000100020012070472C4970B591F80234B5
S2140045A02B4C3BB32B4E337823BB94F802343BBBE7
S2140045B0D1F80200284A81F8023420F47F4323F021
S2140045C0070393422FD18A7942B3881DFFF712FE64
S2140045D021F058F80546FFF799FF01232868337045
S2140045E0030203F4E063C0F30720184329460430AF
S2140045F000F0B2F994F8023433B3164B1B781BBBA9
S2140046000023012284F80234124B208813491A70C2
S21400461000F0A2F9BDE87040FFF78EBF11460120FA
S21400462020F02AFFD4E70E4A934209D18B791BB1BA
S214004630881D00F0D9F8CBE7012020F02FFFC7E750
S214004640063121F097F8C3E770BD00BF02100020C6
S2140046503C140020001000202000FF003E14002024
S2140046602000FF0180B220F007BF20F00FBF00003F
S214004670F8B50546006820F47F4020F0070000F0FB
S21400468015F928BB2846FFF785FF08B32A68114EA0
S214004690140204F4E064C2F30722144302F07DFA25
S2140046A033880434C3F58062944207460BD802333D
S2140046B02246F018294630F0DBFB0123328886F8C4
S2140046C00234144434803846BDE8F84002F06BBA31
S2140046D0F8BD00BF3C140020084A1388C3F5806369
S2140046E0984208D892F802342BB9054B93F8020486
S2140046F080F0010070470020704700BF3C14002087
S214004700021000200022014B1A7070470010002093
S214004710F0B50D46044685B000B1FEE7039202F000
S2140047203CFA1E4F06463888AAB2C0F580639A4205
S214004730039918D80230384430F09AFB3988294457
S21400474089B20329398018D9D7F802200124130228
S21400475003F4E063C2F30722134304338B4202D808
S21400476087F802440224304602F01DFA022C06D1D5
S2140047700B4800F033FA70B1FEE70124F3E7012C92
S21400478009D100234FF4FA71064A0548009300F059
S2140047903FFA00B1FEE705B0F0BD00BF02100020F2
S2140047A00814002065450000084B93F8020450B931
S2140047B0074B93F802341BB9064B187880F00100BB
S2140047C000F0010070470020FAE700BF021000204A
S2140047D03C1400200010002008B5FFF7E5FF002875
S2140047E014BF0120042008BDF8B543780278012BD9
S2140047F014D0022B2BD063BB052A2AD1294C227851
S214004800082A4AD02849D0F802000D46DEB2B24245
S21400481024D845F822000132227016E0052A18D165
S214004820204D2B78002B3AD01F4C00222146D0F882
S214004830026054F8047BD0B2BE421FD10024013B74
S21400484041F822402B7098420FDB002002E0012A3C
S2140048501AD00120BDE8F84020F020BE51F8046BC5
S2140048600133B042D2D12E20F4E7421C51F8225038
S21400487041F8205041F82240D0B2E4E70132D0B2ED
S2140048809842D6D32D20E5E720220021064830F0B6
S21400489016FB0020034B1870DCE71C20DAE71B2011
S2140048A0D8E700BF601800204018002010B5084B5D
S2140048B0084A1C780023D9B28C4201D8002010BDCB
S2140048C052F8041B01338842F5D10120F7E700BFF8
S2140048D0601800204018002038B54FF4827200217E
S2140048E0174830F0ECFA4FF482720021154830F089
S2140048F0E6FAFFF705FE144A0368144D9342286053
S21400490008D002F58042934215D0A2F500429342A9
S21400491013D0FEE70D230E4A0F20137001F09EFD04
S2140049202B680446186802F069FCB4FBF0F0094BEB
S2140049308000186038BD0F23EDE70B23EBE700BFC0
S214004940621800206C19002000C00540701A002074
S2140049506118002068190020B0F5827F07B502466E
S21400496000D9FEE70190074830F082FA0648074B68
S214004970019A0449006801F01FFB00B1FEE703B08E
S2140049805DF804FB6C190020701A0020FD49000039
S21400499008B5144B93F90030002B0CDB012203F012
S2140049A01F015B099B0003F160438A4003F56143E6
S2140049B0C3F880211A600C4B0C4A18680C4903682F
S2140049C05A6603F500529164DA6C0A4942F42042B2
S2140049D0DA644FF48272084B01F052FA00B1FEE737
S2140049E008BD00BF61180020701A0020FF002400D8
S2140049F0FFFF010062180020414A0000F8B5064695
S214004A000C4600250C4F304601F014F8830605D4FA
S214004A103A68ABB29A4205F10105F4D8201E18BFD9
S214004A200120FFF76FFEBDE8F8404FF482720021C8
S214004A30024830F044BA00BF681900206C19002004
S214004A40084608B50038194618BF0120FFF760FE73
S214004A50BDE808404FF482720021014830F02FBABA
S214004A60621800202DE9F8434F4C23681B689B6CA6
S214004A701B0440F1968002F090F8246805462368EF
S214004A805A6E22F4E0225A665A6E42F480225A6621
S214004A904FF4004203F500539A6402F07EF8636A0E
S214004AA006469B889BB243B902F07DF8FFF770FF7D
S214004AB02846BDE8F84302F076B8E06800F008FC47
S214004AC00023D4F8248084F82C3002F066F8B8F876
S214004AD004309BB2002BE7D01427B8F8029002F0FF
S214004AE062F81FFA89F907FB09F909F11001414438
S214004AF0E06800F035FC2D4BC844C8F81830D4F8F0
S214004B002480B8F804309BB293B994F83130032B64
S214004B100CD042F2AC52042123795B0103F18043AE
S214004B2003F570339950022223685A613046BBE77A
S214004B3002F033F8B8F804901FFA89F9B9F1000FBB
S214004B4004D102F030F8D9F80C30FFDEB8F8029045
S214004B50B8F80230B8F806209BB20133B3FBF2F186
S214004B6002FB11339BB2A8F80230B8F804301FFAE3
S214004B7089F9013B9BB2A8F8043007FB098802F0CC
S214004B8012F8D8F81490B9F1000FB8D0D8F80C2065
S214004B90D8F810300021D31A2046D8F80820C84785
S214004BA0ADE7BDE8F88300BF701A0020097000F07A
S214004BB0002209490B684BB1834204D1436A4AB1CB
S214004BC05362012070471A465B6AF4E70028F5D066
S214004BD0184670470B60F4E7741A002010B50446B8
S214004BE090B103F0A9FC2046FFF7E2FF58B194F815
S214004BF0280040B101F0D1FF044A1368013B13605E
S214004C0001F0D1FF002010BD2220FCE7781A00201A
S214004C102DE9F04F85B00546914698460E469DF81C
S214004C20387009B9002F64D12846FFF7D7FF04462D
S214004C3000283CD185F82800286303F0A5FD8642AD
S214004C4039D903F07DFD40F2E7318C462146E6FB7C
S214004C5000C14FF47A72604600232FF019FF4FF020
S214004C60FF32002383468A462FF012FF4FF0FF32B2
S214004C7068860023584651462FF00AFF2B46CDE99A
S214004C80004411461C4A284603F0F1FC044670B95D
S214004C901A4AC5E90798136885F82970EE6233B397
S214004CA01A465B6A002BFBD1556200236B622046D6
S214004CB005B0BDE8F08F304603A957B103F046FDB6
S214004CC004460028F3D12B46CDE900000A4A039992
S214004CD0D9E703F03BFD04460028E8D12B462846DA
S214004CE0CDE90077044A039903F09EFCCEE71560F1
S214004CF0DBE72124DBE700BF014D0000741A00202B
S214004D0091F8283013B50C4683B90B8E4A8E934221
S214004D100ED243B9CDE9003320460B46104A4FF079
S214004D20FF3103F04BFC238E0133238602B010BD07
S214004D3052B191F829307BB101230093D1E90723C2
S214004D402046C96AFFF764FF0123064A84F8283024
S214004D50136801331360E9E7084603F0EDFBF3E759
S214004D60014D0000781A002070B5104D2B681BB15D
S214004D7000260F4B1C6804B970BD94F8283093B118
S214004D8001F00BFF2B6884F82860013B2B6001F0D4
S214004D900AFF94F8293013B92046FFF709FFD4E933
S214004DA0073120469847646AE5E700BF781A002076
S214004DB0741A0020034B1B68002B0CBF0120042034
S214004DC0704700BF781A0020024B1868B0FA80F0CF
S214004DD040097047781A0020FEE7000008B500F08A
S214004DE013F8064B064A07498B4201D3FFF7C6F96C
S214004DF052F8040B43F8040BF6E700BFC00A002085
S214004E00E8800300880F0020044B054A9A60D3F818
S214004E10882042F47002C3F88820704700ED00E056
S214004E2000400000014B1868704700BFEC0B0020E4
S214004E30014B1860704700BFEC0B0020084B1B6F3F
S214004E4003F00703022B04D0032B05D0012B05D05B
S214004E50FEE7044B18687047034BFBE703487047B0
S214004E6000800040EC0B0020F00B0020002D3101EC
S214004E7008B5FFF7E3FF054B1B6FC3F301330133A0
S214004E80B0FBF3F0024B186008BD00BF0080004086
S214004E90E80B00200048704700B4C404014B1868B3
S214004EA0704700BFF00B0020054B1860054B1B6FCA
S214004EB003F00703032B01D1FFF7DABF704700BFEB
S214004EC0F00B00200080004000207047004870472C
S214004ED0002D3101174B9868C0F304400C2822D8E7
S214004EE0DFE800F0092121212121071719211B1DC8
S214004EF01F00114870479B6803F04073B3F1807F32
S214004F0013D0B3F1007F12D00C4A002B08BF104616
S214004F1070470B4870470B4870470B4870470B4864
S214004F2070470B487047002070470A4870470A4889
S214004F30704700BF0040014A405DC60000093D00C2
S214004F400024F400C0EA210180BA8C010048E80180
S214004F50005A620280841E0040420F004FF4004058
S214004F6070474FF47A707047014B1868704700BF5F
S214004F70F40B002000230360704703680B60016099
S214004F807047000005490A681318054883428CBF1D
S214004F904FF0FF320B601046704700BFF80B002042
S214004FA0008001202DE9F04F9A46564B85B01B78BD
S214004FB006460F461546DDF83C909DF844B0DDF8F1
S214004FC05080002B00F08D80072A00F28C800E9B0C
S214004FD0002B00F08880B9F1000F00F08480129B4F
S214004FE0B3F5006F7FDC012802D1109B002B7AD02E
S214004FF0454B03EB05131B7B002B76D0434C10224E
S214005000002168462FF05BFF04EB45141022002FAA
S21400501059D1394620462FF052FF43F210036380E1
S214005020BBF1000F03D1E37843F00303E370374A84
S2140050300E9B02EB451CCCE90193129B6901013BD8
S214005040C3F30A009DF84C30012E03F003034FEA29
S214005050836343EA001E53582D48CDF800A000EAAB
S21400506003004EEA0003535041D113230CF1100EF7
S214005070CCF80C309CE80F008EE80F006FF00301B0
S214005080DCF81C20109B61F39F02012FCCF81C203B
S214005090CCF8143003D1CCF81890CCF804300027A4
S2140050A0194A290102EB051342F80180159A284691
S2140050B05A60694622469F605E7301F0B5FE384628
S2140050C005B0BDE8F08F002120462FF0F8FE4FF423
S2140050D044736380BBF1000FA9D1E37843F030033B
S2140050E0A4E70C48ECE70C48EAE70C48E8E7B8F118
S2140050F0000FD4D19CF8023068F304138CF8023009
S214005100CDE700BFFC1B00207C1A0020FC1A002004
S2140051100F80FFF3028000F0018000F0078000F0AF
S21400512038B5124B05461B78DBB1E0B101F035FD12
S2140051300F4A00231146147B54B92B6001251A012F
S21400514001EB03131D738C5001F02DFD204638BD76
S2140051500133082B02F11002EDD101F024FD0548C1
S214005160F5E70548F3E70548F1E700BFFC1B00201C
S2140051707C1A0020048000F0028000F0018000F01D
S214005180154B13B51868002301908DF8043001F014
S21400519004FD124B1C7824B101F005FD104802B046
S2140051A010BD01221A7001F0FEFC0E4B01A81C7304
S2140051B01C7783F82C4083F83C4083F84C4083F8F7
S2140051C05C4083F86C4083F87C4008238DF80730F9
S2140051D001F000FE2046E2E778510300FC1B0020A9
S2140051E0038000F07C1A002010B588B00E9C009258
S2140051F007940D9C024606949DF8304005940B9C3F
S21400520004949DF8284003940024CDE901342046F8
S2140052100B462146FFF7C6FE08B010BD10B588B095
S2140052200E9C009207940D9C024606949DF8304012
S21400523005940B9C04949DF8284003940024CDE923
S214005240013420460B460121FFF7ACFE08B010BD26
S2140052500A4A08B512785AB107280BD8084A02EB52
S21400526000131B7B43B1002101F0A6FD002008BD02
S2140052700448FCE70448FAE70448F8E7FC1B00206B
S2140052807C1A0020028000F0018000F0078000F009
S2140052900A4A08B512785AB107280BD8084A02EB12
S2140052A000131B7B43B1012101F086FD002008BDE1
S2140052B00448FCE70448FAE70448F8E7FC1B00202B
S2140052C07C1A0020028000F0018000F0078000F0C9
S2140052D00A4A08B5127852B107280AD8084A02EBDB
S2140052E000131B7B3BB101F0EDFD002008BD054817
S2140052F0FCE70548FAE70548F8E700BFFC1B002076
S2140053007C1A0020028000F0018000F0078000F088
S2140053100D4B1B7893B1072812D889B10B4B03EBC2
S21400532000131B7B73B10A4BDA6A012303FA00F001
S21400533010401ABF00200B70087070470548704771
S2140053400548704705487047FC1B00207C1A002063
S21400535000000440028000F0018000F0078000F0AA
S2140053600B4A10B512780C4662B107280CD859B112
S214005370084A02EB00131B7B43B101F0B5FD206029
S214005380002010BD0448FCE70448FAE70448F8E7A4
S214005390FC1B00207C1A0020028000F0018000F038
S2140053A0078000F02DE9F843174B1F6D5B6D1F401B
S2140053B000D5FEE701260025144CDFF85480DFF800
S2140053C05490374217D02368C8F850609BB1A16844
S2140053D0284601316268A1609847637B012B0AD199
S2140053E048B909EB45131A7B60F341021A731A7F1A
S2140053F060F341021A770135082D4FEA460604F19C
S2140054001004DED1BDE8F883000004407C1A0020BA
S21400541000200440FC1A002070B5044601250C4EFE
S21400542004B970BD94FAA4F3B3FA83F305FA03F251
S21400543006EB031124EA02044A68002AF0D0D8B228
S2140054400B7B13B189689047EAE79047E8E700BF0F
S214005450001C002008B5192001F0A8FB28B14FF069
S2140054600072074BC3F880211A601A2001F09EFBD9
S21400547028B14FF08062024BC3F880211A6008BD45
S21400548000E100E038B505460C4601F086FB002238
S214005490044B03EB05135C601A73BDE8384001F05B
S2140054A082BB00BF001C0020064BD3F82404D3F8B0
S2140054B0202403F50053104000F05530C3F82004B4
S2140054C0FFF7AABF00C00340064BD3F82404D3F866
S2140054D0202403F50053104000F0AA30C3F820043F
S2140054E0FFF79ABF00C00340024B1968024B1868CA
S2140054F027F0EABC000C0020FC0B002070470000E0
S21400550037B5920004460D4601922FF0C1FD431CAC
S2140055100BD060B929462046019A2FF099FC002846
S214005520044808BF002003B030BD0348FBE703482B
S214005530F9E700BF10E000F021E000F024E000F002
S21400554013B5044601A801F0B5FD9DF8063001220A
S21400555023804FF4807300206380054B9B680A33DA
S21400556003F01F0302FA03F3636002B010BD00BF2E
S2140055700080E00F01F0E2BC08B501F0D3FC00208B
S21400558008BD10B5044644EA010313F003030846B9
S21400559009D1934201D1002010BD54F8231040F8E1
S2140055A023100133F5E7214692002FF061FCF2E765
S2140055B010B504462FF074FD431C15D0B0B90C4B43
S2140055C020469B680A3303F01F020123934023F012
S2140055D003032344984201D1002010BD50F8042B49
S2140055E00132F7D00348F8E70348F6E70348F4E744
S2140055F00080E00F0EE000F021E000F024E000F074
S21400560008B501F0C3FA014B186008BD90240020CD
S214005610014B186801F0BEBA902400200A460139F2
S214005620014402F08BBA042203685A619A69920711
S214005630FCD541F2AC52102103795B0103F18043A3
S21400564003F5703399507047012203685A619A69CE
S214005650D207FCD541F2AC52042103795B0103F179
S214005660804303F5703399507047000038B141B15C
S214005670013AB2F5006F044838BF0020704703486F
S21400568070470148704700BF037000F0027000F0DA
S21400569038B504460D4601F080FAA3889BB223B9BC
S2140056A02B6001F080FA064838BD142263889BB24E
S2140056B002FB034408342C6001F075FA0020F3E77F
S2140056C00B7000F0F7B504461646019101F065FA36
S2140056D0A388E2889BB29A420546019906D8002321
S2140056E0336001F060FA124803B0F0BD142720883A
S2140056F03A4680B207FB004008302FF0B9FB2388FB
S214005700E2889BB207FB03430833336023882846AE
S2140057109BB20133B3FBF2F102FB11339BB2238041
S214005720A38801339BB2A38001F03DFA0020DBE79B
S2140057300A7000F010B5006801F060FD044630B154
S21400574002F0FEFF24235843B0FBF4F40134204655
S21400575010BD000090F83130022B0BD13023427F71
S21400576090F821005A43044B9B5823FA00F000F0AF
S214005770010070470020704714C00340002313B593
S2140057801D4A52F8044B94F8211081420ED0013382
S214005790042BF6D102B010BD0028FBD19DF80730CF
S2140057A0002BF7D0A068FFF753FDF3E794F83130ED
S2140057B0022BEFD12046FFF7CDFF637E2076022B2B
S2140057C0E8D194F82E3003F0FF02002BE2D1A06857
S2140057D00DF107018DF80720FFF79AFD237E1BB118
S2140057E094F82F30002BD7D00023A06884F82F30F1
S2140057F0FFF74EFDCEE700BF4425002070B50546F6
S21400580001F0CBF96C6B0646013C6C634CB901F0B9
S214005810BDF905462146012002F0A2FA284601F00D
S214005820B9F93046BDE8704001F0BDB90B6837B530
S2140058309D690C4615F02005084606D0FFF7DEFFEA
S214005840022384F8383003B030BDFFF773FF2346D9
S2140058500146CDE90055034A04F13C0002F0E4FE9F
S214005860F1E700BF2D58000070B5044601F095F929
S214005870636B05464BB901F089F9012106460846D7
S21400588002F06EFA304601F085F9636B2846013364
S2140058906363BDE8704001F086B90000F0B50126EC
S2140058A090F8327004460D4689B080F82C609FB997
S2140058B0036824330793FFF7D7FF094A079BCDE910
S2140058C002726A686169CDE90062E0682A68049439
S2140058D0FFF7A4FC09B0F0BD002380F82C30F9E7F0
S2140058E0D95E000001232DE9F04180F82D3090F8B4
S2140058F0323004460D4688B07BBB064656F83C7BE5
S21400590001F04BF90DF11F01804630463C3702F09E
S2140059106FFE40B99DF81F302BB1304602F00CFEEA
S2140059202046FFF76BFF0126404601F03CF9204673
S21400593084F83860FFF798FF0A4B3A460393002333
S21400594002936B682169CDE90063A0682B68049414
S214005950FFF74AFC08B0BDE8F081002380F82D3040
S214005960F8E700BFB159000038B504460D4601F00F
S21400597014F9A3889BB223B92B60BDE8384001F028
S21400598012B9142263889BB202FB034308332B60D0
S2140059906388E2889BB20133B3FBF2F102FB11335A
S2140059A09BB26380A388013B9BB2A380E5E700001F
S2140059B0F0B585B0906A03A91446FFF769FE06465F
S2140059C02046FFF7B7FE002501462346CDE90055E1
S2140059D0164A04F13C0002F027FE154B9E421FD0EB
S2140059E0039B1D619D6001F0D8F8039A0646D768B0
S2140059F027B1D2E9002329462046B847A06A03A962
S214005A00FFF7B2FFA06A83889BB263B103A9FFF7D2
S214005A103FFE20460399FFF765FF304601F0C3F8C6
S214005A20012005B0F0BD84F82D30F6E72D580000B3
S214005A300B7000F00368986970472DE9F041044642
S214005A409046FFF713FE0E46074690BB152001F062
S214005A50BBF80546A26A93889BB213B194F82E3021
S214005A6053B394F8323023B923689D6915F00205C4
S214005A7003D12046FFF7D7FD0025012384F83030F8
S214005A8094F8323033B9B0444645206819D183695A
S214005A909B06FCD56DB942F2AC52102123792F46F5
S214005AA05B0103F1804303F57033995008222368A5
S214005AB05A613846BDE8F081002DCCD0FFF772FC65
S214005AC0C8E716F8011B01F071FCDDE710B50446C7
S214005AD080B190F82E302BB9FFF73CFE10B9A068C5
S214005AE0FFF7B6FB002094F82E300133DBB284F8C3
S214005AF02E3010BD0048FCE7027000F010B50446DA
S214005B00A0B190F82E309BB190F82E30012B05D125
S214005B10FFF720FE10B9A068FFF7BAFB002094F844
S214005B202E30013BDBB284F82E3010BD0148FCE776
S214005B300148FAE7027000F0057000F037B590F8FB
S214005B4031500446022D1DD1012290F82230457EA8
S214005B50817F9A403020164B25B900FB013342F274
S214005B60100105E0012D07D100FB013341F21001C1
S214005B705A50002003B030BD247E00FB0133002CB9
S214005B80F4D1ECE7012DF4D1037E73B911238DF81F
S214005B900730FFF79BFF2A4620460DF10701FFF767
S214005BA04CFF2046FFF7AAFFE3E71323EFE700BF0B
S214005BB000C00340F0B50446A34F8BB003AE0D46BD
S214005BC00FCF0FC697E8070086E807001CB99F4C62
S214005BD020460BB0F0BD0DB99D4CF9E758220021C8
S214005BE020462FF06CF900239A4963630A789A4B93
S214005BF02AB9C3E90022C3E9022201220A709649A3
S214005C000022084650F8046BB4420AD00132042A37
S214005C10F8D1002251F8040B002840F0D58043F854
S214005C2022402B7D84F831300023286884F83230F7
S214005C3020602B7B2371012384F83830874B9842F1
S214005C4040F0C780212384F82330854B23614FF42E
S214005C50802300266361D5E907236262168056809A
S214005C60968084F82C60A3621E805E809E806B689F
S214005C7084F82D600593EB8984F82F60ADF81C300E
S214005C802B8A03A9ADF81A30AB7C8DF80C608DF822
S214005C901830EB7C8DF81E3005238DF8193001F096
S214005CA003FB14212A7B6F4B03EB4217C7F8AC1596
S214005CB0287AA97A2E3240EA014C03EB4213C3F845
S214005CC004C06A7AEB7A42EA034CC7F8BCC5E076B1
S214005CD0E177227784F820306B7D04226377AB7DF2
S214005CE084F82130EB7DA3772B7E84F822300123C5
S214005CF001F022F80123022294F82010207F01F000
S214005D001BF894F83130022B7AD13346012294F8EE
S214005D102110607F01F010F83346042294F8221018
S214005D20A07F01F009F8012394F82120CDE9003383
S214005D301146607F00F0BCFF00F02FFF2B7D06466B
S214005D40032B6ED141F2AC5202212B7B5B0103F197
S214005D50804303F57033995004212A6802F5805277
S214005D60D165297EEA7D42EA014241F2B8515A5095
S214005D70A97D6A7D42EA014241F2B4515A504FF081
S214005D80FF32286800F500539A642B7D032B0CBF66
S214005D900521042101F042FA4FF440622B685A6153
S214005DA0FFF7EEF9002104F10800FFF7B9F9014604
S214005DB028B904F10C00FFF7B3F9044600B12A4CE9
S214005DC0304600F0F0FE03E70132042A7FF422AFEB
S214005DD0FDE6264B984207D1222384F82330244B35
S214005DE023614FF4A02334E7224B98427FF4F4AEAD
S214005DF0232384F82330204B23614FF4C02328E765
S214005E00032B99D1334694F82110607F012200F0CD
S214005E1093FF3346042294F82210A07F00F08CFFF4
S214005E208AE7022BABD194F821001449FFF72AFB2E
S214005E30FFF710FB4FF40073238300232046A3765E
S214005E40FFF77CFE9BE700BFA0510300027000F046
S214005E50037000F0542500204425002000800540F3
S214005E600200040000C003400E7000F000C00540B1
S214005E700200050000000640020006007D570000F4
S214005E80F0B587B005461646FFF7F0FB0446E8B9BE
S214005E900493104BCDE901166A46686A01A9039679
S214005EA00593FFF70FFC044680B995F82C306BB9C4
S214005EB02846FFF7C9FB0099FFF7F0FC95F831304C
S214005EC0032B03D028462C76FFF738FE204607B073
S214005ED0F0BD00BF017000F073B5506A01A914460A
S214005EE0FFF7D6FB05462046FFF788FC2F4B9D4262
S214005EF030D094F83200019A002839D12368996C82
S214005F0011F4007129D02A49906011614FF4007293
S214005F1003F500539A6400F040FE01990646CD68EA
S214005F2035B14A688B682046D31A0A680969A847BB
S214005F30606A01A9FFF718FD606A8588ADB2DDB119
S214005F4001A9FFF7A5FB20460199FFF7A7FC3046FD
S214005F5000F029FE012002B070BD986CC00507D580
S214005F6014489160106103F500534FF48072D1E736
S214005F70002313619360CEE7012320462376FFF7C4
S214005F80DDFD94F8313084F82C50032BDFD042F23C
S214005F90AC52042123795B0103F1804303F570338F
S214005FA09950022223685A61D1E700BF0B7000F0B7
S214005FB00D7000F00C7000F0F0B587B00446164681
S214005FC0FFF754FB054638BB0493154B0396059321
S214005FD02368CDE901169B699B0702D42046FFF78C
S214005FE022FB6A46A06A01A9FFF76CFB054698B932
S214005FF094F82D3083B900F0D0FDA36A06469B883E
S2140060009BB233B120460099FFF76CFC012384F85D
S2140060103030304600F0C7FD284607B0F0BD00BF60
S214006020017000F00B4B30B51B788BB101200023BC
S2140060300546094951F8042B32B192F83840022C33
S21400604004BF204682F838500133042BF2D130BD0D
S2140060500120FCE754250020442500202E4B9842C2
S2140060604AD022D82D4B984240D014D82C4B984278
S21400607039D00AD82B4B984232D02B4B98422FD08F
S2140060802A4B98422CD000207047294B9842FAD1D0
S214006090284B186F7047284B98422AD0274B9842B7
S2140060A0F1D1244BD3F880007047254B98422BD073
S2140060B009D8244B984223D0234B9842E3D11D4B5A
S2140060C0D3F88C007047214B984221D003F5740317
S2140060D003F510539842D6D1164BD3F89800704764
S2140060E0144B986D7047134B586E7047114B586F92
S2140060F07047104B986F70470E4BD3F8840070476C
S2140061000C4BD3F8880070470A4BD3F890007047C2
S214006110084BD3F8940070470048E8010024F400C8
S214006120C0CF6A0080841E0000093D0040420F0078
S214006130405DC6000080E00FC0EA210180BA8C01F5
S214006140007E560380D54302006CDC020090D0032C
S21400615038B5124B0546D3F820310C4603F007033A
S214006160013B032B17D8DFE803F0020A0E12FEF7F6
S21400617059FE042305B1286004B1237038BDFEF72C
S2140061808DFE0323F6E7FEF7A5FE0523F2E7FEF7EE
S2140061909DFE0223EEE700231846EBE70080004052
S2140061A037B50C460021124A0191D2F880210546E7
S2140061B002F00302022A0ED0032A11D0012A14D1BB
S2140061C001A8FFF7C5FF0D230DB1019A2A6004B19F
S2140061D0237003B030BDFEF77DFE05230190F3E784
S2140061E0FEF774FE02230190EEE70B46ECE700BFD5
S2140061F00080004038B5104B0546D3F840310C46B9
S21400620003F00303022B0BD0032B0DD0012B0FD171
S214006210FEF7A4FE082305B1286004B1237038BD3C
S214006220FEF7A2FE0723F6E7FEF79BFE0923F2E73A
S21400623000231846EFE700BF0080004038B5104B3B
S2140062400546D3F860310C4603F00303022B0BD04F
S214006250032B0DD0012B0FD1FEF780FE082305B1CE
S214006260286004B1237038BDFEF77EFE0723F6E7EC
S214006270FEF777FE0923F2E700231846EFE700BF94
S2140062800080004038B5134B0546D3F800320C4664
S21400629003F00703013B032B18D8DFE803F0020ADC
S2140062A00E12FEF75BFE082305B1286004B12370CA
S2140062B038BDFEF759FE0723F6E7FEF752FE092320
S2140062C0F2E7FEF7D5FD0C23800AEDE7002318461B
S2140062D0EAE700BF0080004038B5134B0546D3F808
S2140062E008320C4603F00703013B032B18D8DFE8FF
S2140062F003F0020A0E12FEF731FE082305B12860ED
S21400630004B1237038BDFEF72FFE0723F6E7FEF72D
S21400631028FE0923F2E7FEF7ABFD0C23800AEDE723
S21400632000231846EAE700BF0080004038B5104B4F
S2140063300546D3F840320C4603F00303022B0BD07D
S214006340032B0DD0012B0FD1FEF708FE082305B155
S214006350286004B1237038BDFEF706FE0723F6E773
S214006360FEF7FFFD0923F2E700231846EFE700BF1C
S2140063700080004038B5104B0546D3F800310C4677
S21400638003F00303022B0BD0032B0DD0012B0FD1F0
S214006390FEF784FD032305B1286004B1237038BDE1
S2140063A0FEF7E2FD0723F6E7FEF78EFD0623F2E78B
S2140063B001230020EFE700BF0080004041F6713364
S2140063C00F4A10B5D169D36393680E4C23F440137B
S2140063D0A04288BF43F4801393600B4A0B4CD2F85C
S2140063E01832A04223F0020388BF43F0020301F4F0
S2140063F08031C2F8183211B10022014BDA6310BDA9
S21400640000000340C017530200C0074080F0FA02A5
S21400641008B5FEF73FFDBDE80840FFF7CFBF000018
S214006420032814D005D8012805D0022809D000205A
S21400643005E00F28FBD1084B186FC0F30130013080
S2140064407047054BD3F89000C0F30460F7E7024BA3
S214006450186FC0F38020F2E7008000401FB50023CD
S2140064600293252817D8DFE800F0131A1D262B35CF
S2140064703A51565B60656A78161A3F1616561A2603
S2140064802B26351A5126783A3A3A3A2626265B6063
S214006490FEF7D4FC0290029805B05DF804FBFEF708
S2140064A0E7FCF7E7FEF7CAFC02460220FFF7B8FF54
S2140064B0B2FBF0F0EEE7FEF7DBFC02460320F5E762
S2140064C0FEF7D6FC02460320FFF7AAFFB2FBF0F069
S2140064D04008DFE7002102A8FFF762FEDBE70021A5
S2140064E002A8FFF735FED6E703934FF0E0231B69BB
S2140064F05B0705D5FEF7BCFC0390039B0293CAE737
S2140065000DF1070103A8FFF775FEF6E7002102A8C4
S214006510FFF770FEBFE7002102A8FFF78FFEBAE77D
S214006520002102A8FFF7AEFEB5E7002102A8FFF79C
S214006530D3FEB0E7002102A8FFF71CFFABE7094B2C
S214006540D3F8803003F00303022BA8D0032B01D02E
S21400655000209FE7FEF7BEFC9CE7002102A8FFF79D
S214006560E5FE98E70080004008B50120FFF776FFBB
S214006570BDE80840034988428CBF02210121032060
S21400658000F002B880F0FA02032810B50C4626D0B8
S21400659004D8012804D0022816D010BD0F28FCD13C
S2140065A0FFF736FF00F026F8114B013C196F21F477
S2140065B0405141EA04341C67FEF75AFCFFF7FEFE22
S2140065C0BDE81040FFF7D0BF094B013CD3F8901050
S2140065D021F0F85141EA0464C3F89040DDE7044B2B
S2140065E0013C196F21F4806141EA84241C67D4E7DA
S2140065F00080004002210320FFF7C6BF002307B536
S2140066008DF80230252822D8DFE800F0132121215A
S214006610212C324C52585E646A7D21213821215249
S214006620212121212C214C217D323232322121217F
S214006630585E384B1B6F03F00703013B032B06D84D
S214006640DFE803F00E020A0C04238DF802309DF8F2
S214006650020003B05DF804FB0323F6E70623F4E725
S2140066600223F2E700200DF10201FFF799FDEEE7A5
S21400667000200DF10201FFF76BFDE8E701934FF0F4
S214006680E0231B695B0707D5FEF7F2FB0B238DF8AB
S21400669003309DF80330D8E70DF1030101A8FFF79A
S2140066A0A9FDF6E700200DF10201FFF7A3FDCEE7F6
S2140066B000200DF10201FFF7C1FDC8E700200DF133
S2140066C00201FFF7DFFDC2E700200DF10201FFF730
S2140066D003FEBCE700200DF10201FFF74BFEB6E714
S2140066E00C4BD3F8803003F00303022B03D0032BAC
S2140066F005D00023A9E7FEF7BBFB0B23A5E7FEF7B3
S214006700E9FB0523A1E700200DF10201FFF70EFECD
S2140067109DE700BF0080004070B50C46252847D88E
S214006720DFE810F0260046004600460046005A0005
S2140067306B009C00AD00BE00CF00E000F10002013F
S214006740460046007C0046004600AD004600460077
S214006750460046005A0046009C00460002016B00B8
S2140067606B006B006B00460046004600BE00CF0084
S2140067708B1E042B2DD8DFE803F0291C032C2600E3
S21400678000250226FFF744FEFFF734FF6F4A136F1B
S21400679023F0070333431367FEF76AFBFFF70EFE8B
S2140067A0FFF7E2FE25B9032C02D10122684B9A625C
S2140067B070BD0122674B03269D6A03F58053C5F31F
S2140067C040059A62DEE700250426DBE70025012661
S2140067D0D8E700252E46D5E78C1EE4B20B2C8CBFDE
S2140067E000215D4B594A98BF195DD2F8803123F0DD
S2140067F003030B43C2F88031DAE78C1EE4B2032CA5
S2140068008CBF0021554B514A98BF195DD2F82031F4
S21400681023F007030B43C2F82031C9E70B2912D037
S2140068200ED8CC1F022CC3D84D4A536A43F001033E
S21400683053624FF0E022136923F004031361B7E7B5
S2140068400E29B5D1F0E7464A536A23F00103536296
S2140068504FF0E022136943F00403EFE7CC1FE4B2E5
S214006860022C8CBF00213F4B384A98BF195DD2F8E6
S214006870403123F003030B43C2F8403198E7CC1FA6
S214006880E4B2022C8CBF0021374B304A98BF195D0A
S214006890D2F8603123F003030B43C2F8603187E778
S2140068A0CC1FE4B2052C8CBF0021304B274A98BF82
S2140068B0195DD2F8003223F007030B43C2F800320A
S2140068C076E7CC1FE4B2052C8CBF0021284B1F4A6C
S2140068D098BF195DD2F8083223F007030B43C2F8BD
S2140068E0083265E7CC1EE4B2042C8CBF0021214B95
S2140068F0164A98BF195DD2F8003123F003030B4304
S214006900C2F8003154E705290CD00B2914BF00212A
S21400691002210E4AD2F8803023F003030B43C2F85C
S214006920803045E70321F4E7CC1FE4B2022C8CBF8D
S2140069300021114B054A98BF195DD2F8403223F06A
S21400694003030B43C2F8403232E700BF008000402A
S21400695000E0004000C00040BC510300C8510300E6
S21400696000C00740CC510300CC510300CF510300B8
S214006970CF510300D5510300CC51030008B5FFF7F3
S2140069803DFE07280ABF024B4FF6FF70188808BD69
S214006990200C002038B50546FFF760FB204B044668
S2140069A05A68012A04D11F494A609A699207FCD1A5
S2140069B00020FFF723FE042803D1FFF729FDFFF789
S2140069C019FE194A24F04073954220D0174A954282
S2140069D020D0174AD16811F0060FFBD1906893605B
S2140069E0916803F4F81301F4F8118B4215D1284688
S2140069F0FEF71EFA0020FFF701FE04280FD1FEF76F
S214006A0037FAFFF7DBFCBDE83840FFF7ADBD43F0D3
S214006A100073DEE743F08073DBE79060EAE738BD9B
S214006A2000C0014000E0014040420F0080841E008C
S214006A300000014070B504460020FFF7DFFD032884
S214006A4077D045F60E0302223F49C1F880303F4B0F
S214006A509A62012203F580539A628A6D12F480329C
S214006A60FBD1637820781B0543EA0063A079257C78
S214006A700343E078667C43EA0043207943EA003328
S214006A80607943EA80130B618B69E07A03F0004378
S214006A900343E07943EA8063207A43EA0063607A3E
S214006AA043EA0043A07A43EA00238B61637B096ACA
S214006AB0002B18BF0822207B21F00D0143EA0103BA
S214006AC043EA800342EA03021F49A37B0A624FEAB5
S214006AD043132FD1886AE27B20F0330043EA021387
S214006AE0034343F001038B62194B8A6D33EA0202BB
S214006AF0FBD10222154B9A628B6D5B00FCD44FF0E3
S214006B0000420869A37820F4700040EA03500F4B57
S214006B1008619A611DB9022203F580539A6216B97C
S214006B2001220C4B9A62A37C1BB1074B0A4AC3F89E
S214006B30802070BD8A6A22F033023243134343EA50
S214006B4045038B62EFE700BF00C0004000D0004066
S214006B500300014000E00040F1A7FFFF014B93F95E
S214006B6000007047552500200028ABBF00F16040AC
S214006B70054B00F5614000F00F00ACBF90F8000335
S214006B80185C0009704700BF14ED00E0EFF31080BA
S214006B9072B6704700B962B67047EFF311803023C3
S214006BA083F31188704780F311887047054B4209BC
S214006BB053F8223000F01F0023FA00F0C04300F024
S214006BC00100704700E100E0014608B5EFF31083CE
S214006BD0DB0702D50122104608BDFFF7E7FF024695
S214006BE00028F7D10846FFF7BFFF0146EFF31183F1
S214006BF013B1B0EB131FEDD2074B5B68C3F308036A
S214006C00002BE8D0103B58B2FFF7AEFF88428CBF8F
S214006C1000220122DFE700BF00ED00E0704770476A
S214006C200A4A10B51369044643F00403136101F0E1
S214006C30C5FAFFF7F3FF30BFFFF7F1FF01F0D2FA16
S214006C401CB9BDE81040FEF713B910BD00ED00E01A
S214006C50084A10B51369044643F00403136101F0B3
S214006C60ADFA30BF01F0BEFA1CB9BDE81040FEF721
S214006C70FFB810BD00ED00E0704770474FF04022AF
S214006C80D36E017923F030030B43D366704770B59B
S214006C90054614460E46FFF779FF296881EA040286
S214006CA002EA06044C402C60BDE87040FFF772BF55
S214006CB0072AF7B50D4614461F460FD8032196003F
S214006CC0B14000FA06F215480191FFF7E0FF05F023
S214006CD0030201991248B240FFF7D9FF114B12493F
S214006CE09DF82000002F08BF1946012303FA04F47C
S214006CF00C600E4B0E49002808BF0B461C600D4B5F
S214006D009DF82400C3F820441031A3F6DC33002895
S214006D1008BF0B461C6003B0F0BD00BF00C40340B4
S214006D2008C4034010E4034010D4034014D40340C6
S214006D3014E4034000E00340F8B504460D461F4641
S214006D4016464AB101238B403021184A01FB002227
S214006D50F7B141F2100153503023072D4FF00F01C9
S214006D6004FB03F317D8A80006FA00F28140104887
S214006D701844FFF78CFF56B9012130230B4801FA5F
S214006D8005F503FB040077B141F21003C550F8BDCA
S214006D9042F21001DFE7A5F10800800006FA00F2D3
S214006DA081400448E4E742F21003EFE700C00340E6
S214006DB004C003400CC00340044A054B002918BF1A
S214006DC01346012202FA00F0186070474020044083
S214006DD04010044030B5047845788178C2780120A8
S214006DE00F4B41EA0541240658609C609961FF21DB
S214006DF099620021996319644FF0004159654FF07C
S214006E00FF314FF4001003F50053196505491301CF
S214006E10DBB2C1F8800181F81533086030BD00BFD1
S214006E200000044000E100E02DE9F04101250C4699
S214006E30C3B2DFF888E0D1F800809D408F7ACB7A25
S214006E4094F80DC0097BCEF850500EF5005E4EF853
S214006E5020804FF0300E184E1B050EFB006043EAF4
S214006E60074343EA415322F00302C0F860C0C365FB
S214006E700267FFF792FE736D2B437365237A13B197
S214006E80336C2B433364637A13B1B36B2B43B36316
S214006E902279A37943EA0243084A93616179E37948
S214006EA043EA014306498B61034B55639D64BDE885
S214006EB0F041FFF778BE00BF000004400020044009
S214006EC00010044010B50124C0B28440FFF765FEF0
S214006ED0044B5A6D22EA04025A659C62BDE81040D3
S214006EE0FFF761BE00000440F8B50125C3B20446B2
S214006EF09D40FFF752FE3022094B1E6D5F6B02FB72
S214006F0004335C6EFFF74FFE3D4206D1C4F30A1011
S214006F1008B9354200D10130F8BD0020FCE700BFBB
S214006F200000044041F67132034BDA63012203F598
S214006F300053DA60704700BF0000034041F671322C
S214006F400121044BDA6303F50052D1600022DA63B4
S214006F50704700BF000003404FF090435A6812B1DC
S214006F609A6A002AFAD17047CB784A7810B55B0146
S214006F700C7843EA82030A79234343EA02130C227D
S214006F80424302F190421363012C02BF8A78024BFF
S214006F9043F8202010BD00BFD080034008B54FF056
S214006FA090435A6802B960B15B680BB1FFF7D4FF33
S214006FB04FF0904130B10120074B5860FFF7CCFFEF
S214006FC0C86008BDFFF7C8FF0223CB60FFF7C4FF09
S214006FD00122024B5A60F4E70010004800200048E7
S214006FE04FF090435B6870B50BB1FFF7B5FF01211A
S214006FF0104B4578596083780679002BC37814BF08
S21400700002240024002B14BF042200224379DB0054
S21400701043EA06132B43234313434FF090429360F7
S214007020054B59600378002B14BF0B460223D36030
S21400703070BD00BF0020004800100048436813B928
S214007040416070475B685A68012AFBD159607047F7
S214007050836813B9816070475B685A68012AFBD160
S21400706059607047C369032B9FBF00EB830201334F
S214007070D160C3617047C369042B15D84FF098429E
S214007080116CC902FCD504339B0013650168103BE4
S214007090116041680C30116050F8041C0344116004
S2140070A04FF09842984200D1704750F8041B116088
S2140070B0F8E70000054B5B69C3F38512827003F0A6
S2140070C03F021B0B42700370704700BF00C00740B2
S2140070D040F6B732064B5B689BB293429FBF4FF4B5
S2140070E07A72B3FBF2F3034AD05C88BF0020704785
S2140070F00080E00FDA5103000D4B984208D1A3F54B
S2140071000033C3F88411C36D43F08003C365704732
S214007110084B984204D1A3F51033C3F89411F2E754
S214007120054B984204BFA3F52033C3F8A411EAE741
S2140071300080054000C005400000064070B50546CA
S21400714016461C4619B90320FFF788F90146402C5D
S2140071501BD003D8DCB1202C1BD070BD602CFCD11A
S214007160042303FB06F2560806EB4113B3FBF2F3C7
S214007170094A203B02EAC303AA6822F06002AA601A
S214007180AA681443AC60EB61E7E70623E9E710233F
S214007190E7E70823E5E700BFF8FF7F002DE9B841E1
S2140071A0154F15460F40FAB9202B20D0402B20D083
S2140071B0002B14BF40241024012307F580775F437B
S2140071C000233A4619462DF063FC554300FB04F8AD
S2140071D004FB0351A2FB040400233A4621442DF08D
S2140071E057FC4044BDE8B88180240025E4E71C46EF
S2140071F0E2E780240323E0E7F8FF7F0070B504464B
S21400720085680320FFF72AF9A36805F00102E16903
S21400721003F06003BDE87040FFF7C0BF012200F531
S21400722080535A60CB43934003F00A0343614161A5
S21400723011B900F50050426070470000012200F5C9
S214007240805310B55A6040F6AA6341F205024361C6
S214007250002312498360C365C26000F500520361D3
S214007260C361C36491640E498365884206D00D4CA1
S214007270A04203D004F58044A0420BD188420365A7
S21400728006D0084B984203D003F58043984201D1BC
S214007290002343650123536010BD00BFFFFF0100BC
S2140072A00080054000C0054070B50D46FFF7C6FFDC
S2140072B0012300F580567360AB7C04461BB18368DF
S2140072C043F080438360EB7C1BB12046297DFFF7AB
S2140072D013FF2A8A6B7B20461343EA891343E36035
S2140072E02B7BD5E90112FFF729FF6B7D1BB1A36845
S2140072F043F48033A360AB7D1BB1A36843F4004323
S214007300A360EB7D2A7E1B07120502F4E00203F061
S214007310E0431343A3656A7E931E012B214B20D8BE
S2140073209C421AD003F580439C4218D003F5804354
S2140073309C420CBF02234FF0FF3341F2AC510220B7
S2140073405B0103F1804303F570335850032A23D1C1
S2140073500423F3652B78636170BD0023EDE70123FA
S214007360EBE79C4214D0104B9C4213D003F58043AD
S2140073709C420CBF02234FF0FF3342F2AC51022076
S2140073805B0103F1804303F570335850012ADEE7B2
S2140073900023F2E70123F0E7042204F50053DA6540
S2140073A0D8E700BF0080054000C0054083695B0643
S2140073B0FCD5C1637047000038B50446054D26F07D
S2140073C0A3FF0FCC0FC594E80F0085E80F00002040
S2140073D038BD00BF5825002047F6FF739A42F0B527
S2140073E063D0032963D8334BCF0003EBC10013F8F7
S2140073F031108478012913D10025C3781B1B9D42C8
S21400740002D3E018C0B2F0BD591B4668A3EB510189
S21400741036F911609642D4BF0D4601F1FF33EEE710
S21400742040680028EFD0B0F90010914204DBB0F9B4
S21400743002109142B8BF114682883B44FF2A19BF0A
S214007440C8222826B0F90620B0F90860A2EB01028F
S2140074500CBF0125002592FBF6F25F782A447B1EBE
S214007460934228BF13464FF47A7E00EBC305AE68FE
S214007470EA88AC4611FB02621E4622EAE27201333B
S21400748002F5FA729F42B2FBFEF204D9BCF80CC0B9
S21400749008359445EBD200EBC6008088904228BFA2
S2140074A01046A04238BF2046ACE7FF20ABE70020DE
S2140074B0A9E700BF582500200329F0B553D82B486C
S2140074C000EBC10410F83110636801290FD1E07891
S2140074D0A478904294BFC4EB0001C4EB0201001BE9
S2140074E0CAB28242C8BF002233F91200F0BD002B98
S2140074F039D0A178914202D3B3F90200F6E7E178D9
S214007500B3F900009142F1D999886478A1F1FF0699
S214007510013C714203F10405E4B2714103F10C072A
S2140075201FFA82FCCEB2B44216D805EBC1014FF466
S2140075307A756A43B1F902404968521A04EBD4716D
S21400754002EB610292FBF4F29042CFDBB3F9020049
S2140075509042CBDC10B2C9E737F831E04E1CE64566
S214007560E3D33146DEE70248C0E700BF58250020D7
S2140075700080FFFF08B50448FFF71EFFBDE808407F
S214007580012026F0E7BE00BFE05103007FB51422BD
S214007590002101A82DF093FC044B01A94FF0FF3009
S2140075A0029326F043FF07B05DF804FB006A18005C
S2140075B0002307B5CDE90033012369464FF0FF30BD
S2140075C08DF8023026F0BAFD03B05DF804FB4FF0EC
S2140075D0402213B50024536F684643F001035367F7
S2140075E000948DF80440FFF749FB204602B010BD1A
S2140075F008B50248FFF7CEF9002008BD00B4C40461
S21400760070B586B001AA1546184B03F1100614464D
S21400761018685968083303C4B3422246F7D119885C
S2140076209B782180A370124BD3F84C21120314D4FC
S214007630D3F85041E4B28DF80E40FFF78FFA20449D
S21400764080F308008DF80D000A48FDF72DFC28464B
S214007650FFF7F0F9002006B070BD074B1C884FF608
S214007660FF739C4208BF8C24E5E700BFCC520300A2
S2140076700080E00F00F049020001E00F6FF0040206
S214007680502110B50A480B4C12F0800FD3B21BBF26
S21400769003F00F03043BA3181B1802F101020CBFF2
S2140076A083F8001319763D2AEED1002010BD00BFE6
S2140076B000ED00E000E100E000F07AB838B500F038
S2140076C001FF0446E0B901F03BF84FF4167343435C
S2140076D00C4803F5742303F23F23B3FBF0F30A4A86
S2140076E00A4913600A220D680948013A12F0FF029F
S2140076F040F8043BF9D103EBC3022B4413440B6060
S214007700204638BD40420F00B425002080250020CA
S2140077108425002070470000012208B5034B1A702C
S21400772001F002F8024B186008BD00BF7C2500205F
S214007730B0250020F8B5144C237823B300F0F4FFEE
S214007740124B134D1B68134EC01A012838BF012078
S214007750114B124F18602B7856F8232046F823005A
S214007760111A3A680E48521A0A213A600932B2FBD8
S214007770F1F20133DBB20260B3FBF1F201FB12332C
S2140077802B7000232370F8BD7C250020B025002038
S214007790AC250020842500207825002080250020A8
S2140077A0B4250020014B1868704700BFB4250020A0
S2140077B020230949094A81F82D33094B03F5005067
S2140077C0426702674FF4005003F58053C1F8840106
S2140077D048605A67704700BF00E100E0010000A063
S2140077E000C00040054B064A1B78916DC90700D5BE
S2140077F013B10028F9D1704701207047CC2500202E
S21400780000C000402DE9F843874B1E6F9D6A9C6AB6
S214007810F00705F0020504F001044CD50127834962
S214007820834A91F80090DFF828821767B9F1000FB5
S21400783000F0ED800020087098F80010B94200F2C1
S214007840E18002219762A2F5805291629A6DD1037F
S214007850FCD478495A6B096822F470620A435A636A
S2140078607548764A99690068126821F47F010243D8
S21400787021F47F410A439A617148724A1969126875
S214007880006821F47F6121F00F0102430A431A6168
S2140078906D499A69096822F0FF020A439A61022339
S2140078A0002D40F0AB80624A93620123002C00F06A
S2140078B0A780664A936216F000527FD04FF0010E02
S2140078C05B4F63493A67594A574B82F800E00A789B
S2140078D0DFF864C172440A705A6B564902F470604D
S2140078E008609869554900F47F4008609969DFF898
S2140078F0588101F47F01CCF80010D3F818C05FFA65
S2140079008CFCC8F800C0D3F810C0DFF838810CF43F
S2140079107C6CC8F800C0D3F810C0DFF824810CF0E7
S2140079203F0CC8F800C0C7F828E04FF0020EDFF89A
S2140079301CC1CCF828E04FF0004ECCF828E0D3F875
S21400794058C01CF4803FFAD14FF0004C22F470620D
S21400795042F40072B0F5C84FC7F828C05A6302D880
S214007960B1F5C80F0CD9304A3A499369096823F42F
S2140079707F0323F47F4343EA012343EA01439361F1
S214007980294A35491369096823F47F6323F00F03F6
S214007990880843EA910343EA80131361936923F04E
S2140079A0FF030B4393610223002D37D102F50052EB
S2140079B093620123002C33D0244A9362002E1BDAF4
S2140079C04FF000421A4B18491A67244A12789AB1A7
S2140079D001229A620222A3F580539A628A6DD2032C
S2140079E0FCD44FF000429A61022205B9104B9A620D
S2140079F00123BCB1154A9362BDE8F883134A53E7E6
S214007A000B4A57E7FFF786FE144B1F7053E7FFF746
S214007A1091FE00F04BFB88F800904CE70B4AC7E756
S214007A20034ACAE7024AE6E700C00040CC25002029
S214007A3000E00040D0250020C8250020C4250020F6
S214007A40C0250020BC250020B825002000D000401E
S214007A50CD250020280C0020240C0020CE25002058
S214007A60FFF7D0BEBFF34F8FBFF36F8F054B5A6A39
S214007A7022F480325A62D3F8942022F00102C3F82E
S214007A809420704700ED00E070B52548254CFFF7C0
S214007A90E9FF844208BF4FF08043234A18BF20F016
S214007AA01F03D2F8C01018BF203B21F0FF0141F0A1
S214007AB0A001B3F1005FC2F8C0100CD31B4D1C4EE2
S214007AC0296843F00103C2F898100131C2F89C609F
S214007AD0C2F8A0302960844210D01448154B0268C2
S214007AE0114923F01F0343F00303C1F89820C1F89F
S214007AF09C30114B0132C1F8A0300260BFF34F8FAB
S214007B00BFF36F8F0522084BC3F894205A6A42F4DD
S214007B1080325A62BFF34F8FBFF36F8F70BD00BFC6
S214007B20E40D0020800F002000ED00E0D4250020AA
S214007B30030000209F0F0020E1FFFF3F10B5144612
S214007B40FFF790FF1F2C21D9194A1A4CD2F8C030E3
S214007B5021F01F0123F47F4343F48073C2F8C03042
S214007B60C30618BF20F01F002368114A18BF203034
S214007B7020F01F00C2F8983040F0030041F00301E7
S214007B800133C2F89C00C2F8A0102360BFF34F8FE9
S214007B90BFF36F8F0522064BC3F894205A6A42F44F
S214007BA080325A62BFF34F8FBFF36F8F002010BD35
S214007BB000ED00E0D4250020BFF34F8F0549064BAB
S214007BC0CA6802F4E0621343CB60BFF34F8F00BF76
S214007BD0FDE700BF00ED00E00400FA0508B5FFF77A
S214007BE0EBFF08BD034B1B78002B14BF01200220BF
S214007BF0704700BF082600200329F8B598BF124B2F
S214007C0005460E468CBF00245C5C032805D8DFE8DA
S214007C1000F002080B0E44F002040C4B1F684FB92C
S214007C20F8BD44F00804F8E744F02004F5E744F013
S214007C308004F2E77B681A68144203D0314628466F
S214007C405B6898473F68EAE7DF5203000426002097
S214007C5038B5104D2B78ABB10F4C23781BB100F024
S214007C60EDFA00232370002000F00AFB0B4C50B105
S214007C7000F010FB0023012120782B70FFF7BCFFDB
S214007C800123237038BD0122054B1A702278054B5C
S214007C901A70F7E702260020FD250020F4250020B4
S214007CA0012600201026002010B5FEF76FFF064BB9
S214007CB004461B781BB1BDE81040FEF76BBFFFF70C
S214007CC0C7FF2046F7E700BFFC250020002814BFAA
S214007CD00121FF21074A13780B44137008D0064B86
S214007CE01B78012B04D9054B1B780BB9FFF7B0BFE7
S214007CF0704700BF08260020F4250020012600203B
S214007D0070B5FEF743FF114E054633788BB900F089
S214007D10D9FB044620B12846FEF73CFF204670BD3E
S214007D2000F00EFD0A4B18600A48FDF723F90A4BCF
S214007D301C6000F0DBF900F0E1FA084B0024186044
S214007D40012328463370FEF725FFE7E7FE250020CF
S214007D500C2600200426002014260020F8250020EB
S214007D6000292DE9F34114BF0121FF21254A00F126
S214007D70FF30135C0B4413543AD0234E3278012A5A
S214007D8036D9FFF72FFF0128044634D81F4FFEF7D9
S214007D90FDFE3B781BB31E4D2B781BB901222A70C3
S214007DA01C4A1370DFF8708098F8003033B10190E9
S214007DB000F044FA0023019888F80030FEF7EAFE47
S214007DC0012000F05DFAFEF7E1FE2B782BB1019062
S214007DD000F060FA002301982B7000233B70FEF73A
S214007DE0D9FE3078A04203D02146FFF705FF347055
S214007DF002B0BDE8F081032AF3D10228F1D100F0E9
S214007E0097FAEEE708260020F42500200226002038
S214007E10FC25002001260020FD25002068B5FEF781
S214007E20B5FE094B06461B78012B04D8FEF7B2FEBA
S214007E300025284668BD054B1D6800F063FA05441A
S214007E403046FEF7A7FEF4E7F425002014260020AF
S214007E5007B5FEF79BFE0190FFF7FAFE019803B008
S214007E605DF804EBFEF796BE38B541600446FEF7B3
S214007E708DFE054621460448FDF77FF82846BDE8F6
S214007E803840FEF787BE00BF04260020054B1B685F
S214007E905843054B00F5742000F23F20B0FBF3F08A
S214007EA0704700BF0C26002040420F002DE9F0432B
S214007EB085B0FEF76BFE044600E000BFFCF7B7FA9D
S214007EC0002800F08A80654E654F337823B1002085
S214007ED0FFF7FCFE00233370FFF784FE05460028FC
S214007EE000F08380851EEDB2012D40F28680FFF7FC
S214007EF079FE0128804604D95A4B1B780BB900F04E
S214007F005BF9594DDFF880912878404507D099F8FD
S214007F10003013B94146FFF76FFE85F80080B8F1D0
S214007F20010F0FD9DFF83C8198F8003053B94F4B5A
S214007F301B7823B900F07CF901224D4B1A700123FF
S214007F4088F80030287800F0C3F999F8003013B1AB
S214007F50484B1B782B7000E000BF2046FEF71AFE49
S214007F60FEF714FE444B04461A7852B100221A70EB
S214007F70404B28781B78984203D101212970FFF7DF
S214007F803BFE384600F0D8FAFCF766FA8046002832
S214007F909BD1344F3B789BB189F80000DFF8D09036
S214007FA099F800301BB100F049F989F800800020EC
S214007FB000F066F9002846D000F06CF900233B700C
S214007FC0337823B10020FFF781FE002333700021B1
S214007FD02878FFF711FE00232B7000E000BF204634
S214007FE005B0BDE8F043FEF7D5BD3378002B3FF46F
S214007FF07EAFFFF76BFE357079E7002003A900F02F
S2140080005BFB054600287FF472AF1C4B039A1B6887
S2140080109A4205D80120FFF759FE0123337066E720
S214008020174BD3F8008000F06DF90399404488425E
S214008030F0D20223091ACDE9005338462B46114ADE
S21400804000F0A2FA53E7012000F042F92046FEF7BE
S214008050A1FDFEF79BFD0446A9E700BF0B26002006
S214008060D825002002260020F42500200A2600201D
S214008070FD2500201026002000260020F8250020E0
S21400808014260020A97C00000126002010B5FEF76B
S2140080907DFD0022044B1C781A70FEF77BFD00F075
S2140080A025FC2043C0B210BDFF25002010B5094BAB
S2140080B01B786BB1084C237853B100F0EBF8002323
S2140080C0064A237013700123054A1370054A13707D
S2140080D010BD00BFF4250020012600200226002047
S2140080E0FF25002000260020704700002C4A2D4B5C
S2140080F0116F2D4801F0070170B51960D2F82031D4
S2140081008069032900F0020041D003F00703991E9E
S2140081104B424B41D2F88012244D01F001010B4333
S21400812023490B7060B33BB9D2F8003103F0030368
S2140081305A1E534253410B70194BD3F8003103F0CB
S2140081400303022B25D0032B26D0012B18D1FCF7D6
S214008150A5FEA8B1144B411EDC6800230246084663
S2140081601946C4F30B04134E013404EB8404E4FBF9
S21400817006012CF08DFCFFF789FE2B68184428605A
S2140081806420FFF783FE2B681844286070BD012327
S214008190C0E7FCF7E9FEDCE7FCF796FED9E700BF90
S2140081A0008000401826002000C001402026002045
S2140081B01E26002040420F00FEF75EBD074B1A78D1
S2140081C052B100221A70064A136F23F0070343F0D9
S2140081D001031367FCF74CBE704700BF1C26002047
S2140081E0008000400E4B10B51B7883B1022000F0D3
S2140081F023FC60B100F092FA48B10A4B9A6DD203A4
S21400820006D5DB6D9B0703D50122074B9A6210BD8E
S2140082100124064B1C70FFF77FFA034B9C62F6E7BF
S2140082201E26002000C0004000D000401D26002072
S2140082300122014B1A7070471C26002038B50C4BE3
S2140082401B786BB10B4C23787BB90B4B0B4D9A6D9F
S21400825012F4803F05D0DB6D9B0702D50123AB628D
S21400826038BDFFF759FA0123AB6200232370F7E706
S2140082701E2600201D26002000C0004000D0004022
S214008280034B1B780BB1FFF7ADBA0120704700BF58
S2140082901E26002008B5FEF7F0FC094A0949136FB0
S2140082A0096823F007030B431367074B1B7813B1CA
S2140082B00122064B9A62BDE80840FCF7D9BD00BF14
S2140082C000800040182600201E26002000E0004007
S2140082D002280AD003280BD001280CD1064A1369BD
S2140082E023F00403136130BF70470020FEF798BCEC
S2140082F00020FEF7ADBC704700ED00E04FF4C870FC
S214008300FFF7C4BD08B5054B187818B1FFF74AFA51
S21400831000EBD000024B1B68184408BD1E26002048
S214008320202600200122014B1A7070471E260020CE
S2140083307047000010B500F01FFB0A4C0A4B196886
S2140083402368C31A01B10BB9206010BD4A699A426E
S2140083503ABF9B1A0022D21A4A6128BF00238968B6
S214008360F0E700BF282600203C260020C38870B512
S21400837004460D463BB9FFF751FD8542064602D23C
S214008380FFF766FD35460F4965610B68ABB90C60B3
S214008390A36011E0AD1A9A68184665612AB11346C3
S2140083A05A69AA42F6D950B11A4613468460A360A9
S2140083B013B15969491B596170BD0020F0E70C6084
S2140083C0F5E700BF3C26002038B5134D2B685B69E7
S2140083D093B1124A022014681C4400F001FB2046A8
S2140083E000F0D2FA00230E492A680B70D088800766
S2140083F009D501230B7038BD022000F0F1FA0220E7
S21400840000F012FBEEE79268002AF4D050690344AD
S214008410012BEBD9EFE700BF3C26002028260020E2
S2140084203026002070B516469DF81420C0E90336A5
S2140084300271049ABDF8183002600022C380826080
S21400844004460D4600F098FA3044A0613DB9E36852
S214008450656113B120462168984796B13546FEF708
S21400846095FB0646FFF766FF29462046FFF77EFF88
S214008470054B1B68A34201D1FFF7A6FF3046FEF767
S21400848089FB002070BD00BF3C26002000220C495E
S2140084900B687BB183420AD183687AB193608368A4
S2140084A01BB15A6941690A445A61002070471A464E
S2140084B09B68EEE70028EFD0022070470B60EEE7DF
S2140084C03C26002070B5FEF768FB144E054634784F
S2140084D0FCB9134B1C60134B1C60134B1C8000F044
S2140084E011FA012000F07CFA00F0D0FA0F4B024699
S2140084F0186020B92846FEF756FB232070BD234699
S21400850040F2E7310A482CF0C3FA0A4B1860012300
S21400851033702846FEF747FB0020EFE724260020AE
S2140085203C26002028260020322600203826002060
S21400853018FCFFFF2C2600202DE9F0410546F8B177
S214008540FEF724FB0F4F0646FFF7F4FE2846D7F843
S2140085500080FFF79BFF044628B13046FEF71AFB63
S2140085602046BDE8F081A8453B6803D123B1FFF75C
S2140085702BFFF2E7002BF0D1022000F03DFAECE7EB
S2140085802224EDE73C26002070B586B015461E4630
S2140085900446059180B1FFF7CFFFBDF82C300022CE
S2140085A002939DF828302046CDE9006305992B46B6
S2140085B0FFF738FF06B070BD2220FBE7F0B50D468A
S2140085C016461F46044685B080B1FFF7B5FFBDF8D6
S2140085D02C302A4602939DF828302946CDE90073B0
S2140085E020463346FFF71EFF05B0F0BD2220FBE70E
S2140085F038B50C46054698B191B100230B70FEF7CE
S214008600CCFA0121074B1B680BB122781AB1FEF792
S214008610CAFA002038BDAB4214BF9B682170F3E74E
S2140086202220F7E73C260020F0B51F46002387B03F
S2140086300D46164604468DF81730A0B10DF1170109
S214008640FFF7D6FF9DF817207AB9BDF834302946D3
S21400865002939DF830302046CDE900733346FFF78D
S214008660E1FE07B0F0BD2220FBE70320F9E7F0B5F6
S2140086701F46002387B00D46164604468DF8173071
S214008680A8B10DF11701FFF7B3FF9DF8173083B9B6
S214008690BDF834302A4602939DF830302946CDE99D
S2140086A0007320463346FFF7BDFE07B0F0BD22201C
S2140086B0FBE70220F9E700002DE9F041074688466F
S2140086C0FEF76BFA00260546124B1C6824B92846AE
S2140086D0FEF769FA1B2016E063691E44E388BB4276
S2140086E015D100F049F90C4C2368C01AB0420CD2E0
S2140086F000F042F922683244121A2846C8F80020D0
S214008700FEF751FA0020BDE8F0810022F5E7A468E4
S214008710DCE700BF3C26002028260020014B187806
S214008720704700BF3026002038B5FEF736FA0546FB
S21400873000F022F904462846FEF735FA204638BDF2
S214008740014B1868704700BF382600200C4B70B5E8
S2140087501B680D46834211D340F2E73100248C4655
S2140087602146084B4FF47A721E680023E0FB06C1D0
S21400877060462CF08DF92860204670BD2120FCE76D
S2140087802C26002038260020014B1868704700BFB2
S2140087902C2600200F4B10B51A689AB14FF47A7148
S2140087A0531E1342A0FB01010ED1B2FA82F2C2F1AF
S2140087B01F04531CD243E04001FA03F3184321FA86
S2140087C002F20243104610BD00232CF061F9024667
S2140087D0F8E700BF38260020C2072DE9F347044615
S2140087E00BD53F4A138801339BB21380FFF7A2FDD7
S2140087F03C4B1B680BB1FFF7E7FDA3076DD5FEF7F3
S214008800CCF9002605463746FFF794FDB146DFF85B
S214008810D480D8F800400CB163698BB10022324B8B
S214008820012F1A7002D1022E08BF1F70002C44D0F0
S214008830FFF7CAFD284602B0BDE8F047FEF7B3B919
S21400884023461A792179914288BF1C469B6813B14A
S2140088505A69002AF5D02846FEF7A5F9256985B39A
S21400886000F08AF8A269861AF317B54279EB03037B
S21400887028DA23691344A3610123226982B17BB9F4
S214008880A91B0191FEF789F9824601992046FFF758
S2140088906DFDA369226950461344A361FEF783F970
S2140088A0E368E688013713B1204621689847FEF74B
S2140088B074F90546FFF73EFDABE7022000F09CF892
S2140088C0B8E72E46FEF769F982462046FFF7DEFD3A
S2140088D05046FEF768F90023CFE702B0BDE8F08700
S2140088E0322600203C2600203426002010B5FEF755
S2140088F054F9034B1C78FEF756F9204610BD00BF0E
S214008900342600201FB50024184B18689A88029059
S214008910D3F806009B7A009002A8ADF80C208DF8DC
S21400892004308DF808408DF80C40FEF759FB694678
S21400893001208DF80040FEF717FB4FF090431F21F3
S2140089409A6922F01F029A61094A51619A6A12F0E6
S2140089500802FBD11A620120FEF720FB4FF480626A
S214008960044BC3F880211A6004B010BDE352030024
S2140089700020004800E100E04FF090439A6A12079A
S214008980FCD4186A704700004FF09042936A1907AB
S214008990FCD4136A116C5269120704D4CA1A032A4B
S2140089A001D899420ED1C21A022A98BFD81CB0F13B
S2140089B0FF3F38BF01384FF0904318649A6942F081
S2140089C008029A61054A13783BB14FF09041CB6B91
S2140089D043F00203CB630023137070472C0C002077
S2140089E082074FF0904200F00103916948BF43F0C0
S2140089F008030B4393617047820700F001030AD512
S214008A000121084A43F0080311704FF09041CA6BE9
S214008A1022F00302CA634FF090418A6922EA0303F8
S214008A208B6170472C0C0020830742BF0822014B45
S214008A305A617047001000484FF0904301285B6968
S214008A4004D0022805D1C3F3C000704703F001002C
S214008A50704700207047000010B5FEF79EF84FF0F4
S214008A60904304465B691A07074A03F0010003F0C7
S214008A700D0348BF40F002005361FFF7ADFE2046ED
S214008A80BDE81040FEF78FB8002000481C20FDF718
S214008A90E5BC08B5FBF744FCFBF79AFCFBF79FFC2C
S214008AA0FBF7A8FCBDE80840FBF7AFBC08B5FBF732
S214008AB0B3FCFBF7B2FCFBF7B2FCBDE80840FBF7E3
S214008AC0B0BC000001481AF085BF00BFF05203009A
S214008AD038B50446FEF75AF8054620462CF0A8F9A5
S214008AE004462846FEF756F8204638BD37B50446F5
S214008AF00191FEF74BF80199054620462CF058F9EF
S214008B0004462846FEF746F8204603B030BD38B582
S214008B100546FEF73BF8044628462CF091F9204619
S214008B20BDE83840FEF736B80A4619B1024B0021B8
S214008B301B681847704700BF300C002000F4E04068
S214008B40B0F5805F04D0A0F50053584258417047F6
S214008B5001207047B0F5105F0DD009D8B0F5885FDA
S214008B6010D0B0F5905F0DD041F20103984209D0C5
S214008B706FF08500704721F04003802B02D0B1F5DE
S214008B80807F06D111F0070F14BF6FF0860000201B
S214008B9070476FF0860070470E4B0340B3F1607F5E
S214008BA006D1B1F5885F14BF6FF0860000207047CD
S214008BB0B3F1707F0BD101F4E043B3F5005F06D14B
S214008BC011F4E06F0CBF6FF08600002070476FF066
S214008BD0860070470000C07F8A42F8B507460D46FB
S214008BE000F01781964B974802EA030181420BD0AA
S214008BF0954922F0FF048C4206D0944C22F47F71F3
S214008C0021F00301A1421DD12B4083420BD08E4B95
S214008C1025F0FF01994206D08C4925F47F7323F096
S214008C2003038B420ED115F0FF030BD0884943F0A7
S214008C3000738B4206D16A4032F0FF030CBF01205E
S214008C400020F8BD05F0FE43B3F1A06F17D102F087
S214008C50FE43B3F1A06F40F0DE8082EA050333F4F2
S214008C607E1340F0D88015F40040EAD0C5F30540E6
S214008C70C2F3054290428CBF00200120E1E7B3F129
S214008C80407F40F0B38002F0FE43B3F1407F40F0F7
S214008C90C28082EA050333F47E1640F0BC80394673
S214008CA02846FFF779FF002840F0B580694C12F49B
S214008CB07C1C04EA020438D0B4F1607FC2F3054C91
S214008CC07AD16549D3B243F000738B4278D003F172
S214008CD07E410439012975D960498B4276D001312D
S214008CE08B4275D001318B4274D001318B426BD0F0
S214008CF001318B426AD001318B4269D003318B42FD
S214008D0064D001318B4263D001318B4262D0013195
S214008D108B4208BF402615F47C1FC5F305435BD184
S214008D20664514BF002001208BE7B4F1607F2BD18D
S214008D304949D3B243F000738B426ED003F17E41B3
S214008D40043901296CD945498B426FD001318B42D9
S214008D506FD001318B426FD001318B4263D001312D
S214008D608B4263D001318B4263D003318B425DD09E
S214008D7001318B425DD001318B425DD001318B4297
S214008D8008BF4FF0400C9CE7B4F1707FC3D107F4E6
S214008D90E043B3F5005F05D14FF0010CC7F30223A3
S214008DA00CFA03FC07F4E043B3F5005FB3D10126E9
S214008DB0C7F302239E40AEE7B4F1707FABD1F1E774
S214008DC01026A8E71426A6E74026A4E71C26A2E756
S214008DD02026A0E730269EE712F47C1F01D1B3427E
S214008DE017D02A047FF52DAF634544E7B3F1106F23
S214008DF011D125F01F6323F4702363B902F0FE43FC
S214008E00B3F1106F07D11648104040F01060A8422A
S214008E1087E7012015E7002013E74FF0100C50E716
S214008E204FF0140C4DE74FF0400C4AE74FF01C0C87
S214008E3047E74FF0200C44E74FF0300C41E700BF07
S214008E4000FEFFFF00020006000900060004000600
S214008E50FF0000020000C07F0300000208000002BE
S214008E600000FFF643680A461B0A10B403D05DF8FC
S214008E70044B00F0C5BE4388B3B1018801F4E0405E
S214008E80B0F5805F02D0B0F5005F02D10733DB108B
S214008E9009E047F2010081420AD15B080133DB108A
S214008EA003EBC3033B33136000205DF8044B7047AD
S214008EB044F20100814202D1DB081033F3E747F2A7
S214008EC00200814204D1DB0803EB43035A33EAE78E
S214008ED044F20200814204D1DB0803EB43034A3329
S214008EE0E1E721F0FF01B1F5E24FCFD0B1F5824FB7
S214008EF004D10733DB105B000133D4E76FF0850045
S214008F00D3E77FB500F0FE46B6F1106F0D4603D0EE
S214008F106FF0850004B070BD20F01F6424F4702448
S214008F20002CF5D10A9C0294099C0194089C00949C
S214008F3000F08AFF10F1860FECD16B681B0AE9D1AE
S214008F40E6E700002DE9F843884617461C4601F080
S214008F5051F8054600283FD1D8F80060B6F80090D2
S214008F6009F4E043B3F5804FF36808BF27F0010724
S214008F7037EA030328D17CB3224A24F4FF7323F094
S214008F80010393420BD0204B24F0FF029A4206D0F6
S214008F901E4A24F47F7323F0030393421FD114F078
S214008FA0FF0304D01A4A43F0007393421ED02246B1
S214008FB048463169FFF710FE074668B9224648461C
S214008FC07169FFF709FED0B96FF0840500233046BB
S214008FD0C8F8003001F05CF82846BDE8F88304F0D5
S214008FE0FE43B3F1407F04D12304E0D56FF086053D
S214008FF0ECE7B3F1A06FF7D0054B9C42D6E73D46B1
S214009000EAE700BF000200060009000600040006AA
S214009010FF00000238B5037904460D4633B9A3684D
S21400902020462B6001F034F838B938BDD0E9081274
S21400903001F0F6F80028F2D0F7E700232B60F4E7FB
S21400904000F0FE43B3F1407F70B505460E4640F093
S2140090509980FFF7A1FD002840F0968015F47C1F4C
S21400906005D0C5F30543032B13700DD86BE04C4BAE
S2140090702B40B3F1607F69D14A49EBB243F00073ED
S2140090808B4231D110231370454C2C40B4F1607FD5
S2140090906AD14449EAB242F000728A4275D002F1BF
S2140090A07E410439012972D93F498A4271D0013183
S2140090B08A4270D001318A426FD001318A4211D083
S2140090C001318A4265D001318A4264D003318A4236
S2140090D05FD001318A425ED001318A425DD00131D3
S2140090E08A424FD140214BE003F17E4104390129E9
S2140090F001D81423C7E72C498B4201D11C23C2E7B1
S2140091002A498B4201D12023BDE729498B4201D150
S2140091103023B8E727498B4201D14023B3E72649DD
S2140091208B42EBD001318B42EDD003318B42E5D040
S21400913001318B42E7D001318B42E9D001318B42BD
S214009140EBD0002313706FF085001DE0B3F1707F45
S214009150F7D101F4E043B3F5005FF2D10123C1F388
S21400916002218B40DBB27EE7B4F1707F0AD106F4B1
S214009170E042B2F5005F05D10121C6F3022291401C
S2140091808B4201D96FF0860070BD1021F8E71421DC
S214009190F6E71C21F4E72021F2E73021F0E700BFD4
S2140091A00000C07F03000002080000020900000261
S2140091B00A0000020B0000020C0000022DE9F04736
S2140091C0174624220D460021044692B00DEB0200FD
S2140091D09A46DDE91A868DF81F10DDF870902BF0A0
S2140091E06EFE1D9B2046002B18BF4FF480522B4668
S2140091F008BF4FF4005208A9FFF7A4FE044620BBA0
S214009200DDF820C009ACBCE80F000FC49CE80700DE
S21400921084E807002846BDF824100DF11F02FFF76A
S2140092200FFF044688B99DF81F30B34224D8CDE915
S2140092300339CDE901A8089900972B46D1E9081211
S21400924009A800F0AEFD044620B10023C9F800606E
S2140092508DF81F309DF81F00B04204D2321A21212B
S21400926040442BF02CFE089800F012FF002C18BF8C
S214009270204612B0BDE8F0876FF08904E5E70023CA
S2140092802DE9F341D0E9016804460F463046114601
S214009290136000F007FF054688B9304600F004FF6B
S2140092A0054660B9F6B276B9B8F1000F05D1E368A5
S2140092B023F47F4323F0030363B16FF0860528464B
S2140092C002B0BDE8F0810146A06800F0E6FD002887
S2140092D0EDD1F2E74FF6F87362889A421CD8238BDA
S2140092E023F00103002BE8D1394601A800F040FE28
S2140092F005460028E3D10FCC3F683E460FC694E8EB
S21400930007003B7986E807000BB9019BBB603B8BE7
S21400931023F001033B83D2E76FF08505CFE770B5F6
S214009320046A05460E463CB90120FFF7DFFB2862BB
S21400933028B120466E6270BD6FF08A00FBE76FF0C2
S2140093408C00F8E773B50E46114605460192FFF706
S214009350E6FF044620B93146019A286A2BF088FDBC
S214009360204602B070BD2DE9F041089E88461F4693
S214009370048822B96FF085042046BDE8F0812046B7
S214009380FFF7DCFB0028F5D033680BB9D300336059
S214009390B2F1005FEED24FF6F87331689942E9D821
S2140093A02046FFF7D7FB04460028E5D1CD1D0699D9
S2140093B0EB08B1EBD50F0BD393420CD141463846A0
S2140093C02BF056FD3368079A0733DB081360D3E7A4
S2140093D06FF08904D0E76FF08604CDE710B5044639
S2140093E0006A10B1616AFFF79FFB206AFFF78FFBE8
S2140093F00020C4E9080010BD38B50446FFF7EEFFAC
S214009400E3692822012B0CBF05466FF09605002164
S21400941020462BF054FD284638BD13B5044660B1EF
S21400942001A900F0E7FD044638B90198C369012B8D
S21400943006D900F02DFE6FF08304204602B010BD62
S2140094400379FF2B0BD01BB1806800F03FFE04466B
S2140094500198FFF7D1FF002818BF0446EDE76FF02C
S2140094608404F5E773B5044608460E4600F09AFBFA
S214009470002320461A4601A9FFF764FD70B934465A
S214009480019D0FCD0FC495E8070084E80700338BD5
S214009490019803F00103338300F0FAFD02B070BDBB
S2140094A070B5144602881D461046049EFFF746FB1C
S2140094B050B944F2010322F44050984204D002F41A
S2140094C04F42B2F5824F0ED1B4420FD822462846FC
S2140094D02BF0CEFC0021321B28192BF0F0FC0020CC
S2140094E0059B1C6070BD6FF08500FBE76FF0890080
S2140094F0F8E72DE9F04188461F4616468CB022B3A1
S214009500002301223B6002A9FFF71CFDD0B9DDF85D
S21400951008C003AC6546CDE90A000FCD0FC495E838
S214009520070084E80700CDE900674346DCE9081237
S21400953003A800F0FCFB0446029800F0A9FD002CEE
S21400954018BF20460CB0BDE8F0816FF08900F9E73F
S21400955070B51D4644F2010314460288049E22F4A8
S2140095604050984204D002F44F43B3F5824F13D1D3
S21400957002F4E042B2F5804F0ED1B4420FD8224634
S21400958028462BF075FC0021321B28192BF097FC7F
S2140095900020059B1C6070BD6FF08500FBE76FF038
S2140095A08900F8E72DE9F0438946984617468DB0BE
S2140095B052B3002302A91A46C8F80030FFF7C2FCCF
S2140095C0E0B9029E33885B041BD5354603ACCDE973
S2140095D00A000FCD0FC495E8070084E80700CDE920
S2140095E000784B46D6E9081203A800F0ABFB044609
S2140095F0029800F04DFD002C18BF20460DB0BDE8C7
S214009600F0836FF08604F3E76FF08900F6E72DE944
S214009610F0411E46002388B0054688461746CDE929
S214009620043307923360002A4CD005AA04A9FFF73A
S21400963026FE0446D0B9284607A9FFF713FC0446C1
S214009640A0B90498036AB3B1049B41465A882846D9
S214009650069206AA029203F1240201925A6A009226
S2140096601B6A3A4600F03CFB044658B1049800B327
S214009670FFF7C2FE1DE00799FFF751FE04460028DB
S214009680E2D0F3E70498069B4288B2B943802B8861
S21400969013B102889A4212D12B6A83B96B8813B130
S2140096A042889A420BD13146FFF7B4FC04460028A4
S2140096B0DCD1204608B0BDE8F0819A42E7D06FF0D2
S2140096C08604D3E76FF08604F3E7036810B5044614
S2140096D053B100F0B0FB00232360A38823F4FF738C
S2140096E023F00103A38010BD1846FCE72DE9F041E6
S2140096F005460C4600218CB0174603A8242298463F
S21400970002912BF0DCFB2B68002B3DD1B8F1000F4B
S21400971020463B4614BF4FF480524FF4005202A935
S214009720FFF710FC044600BB029E03AC0FCE0FC42E
S21400973096E8070084E807003846BDF80C102A1D96
S214009740FFF77EFC044680B96B79284668F3000371
S2140097506B71029B03A9D3E908230097B8F1000FA9
S2140097600FD000F02BFB044610B12846FFF7ADFFE4
S214009770029800F08DFC002C18BF20460CB0BDE807
S214009780F08100F02EFBEEE76FF08804EDE7012392
S214009790FFF7ACBF38B50368054614464BB132B187
S2140097A000F032FB044610B12846FFF78EFF204635
S2140097B038BD6FF08804FAE72DE9F04116460268D6
S2140097C005460F469846F2B14279D2071BD5027974
S2140097D0CAB1B2421AD800F020FB044618B10023E2
S2140097E0C8F800602B712879B04204D2321A2121C1
S2140097F038442BF064FB2846FFF767FF002C18BFA1
S2140098002046BDE8F0816FF08804E8E76FF0890431
S214009810E5E71FB501240394089C0294079C019475
S214009820069C0094FFF7CAFC04B010BD37B50C4D7B
S2140098300C462B7ADB070FD500230A460193014618
S21400984001AB284602F073F820B9019BA34218BF6B
S2140098506FF0930003B030BD6FF08800FAE700BFEA
S214009860402600202DE9F0471F46002390B0DDF883
S21400987068A00D46DDE91889CAF8003001F0FE43FD
S214009880B3F1806F16465AD10B464FF4807206A984
S214009890FFF758FB00283FD1DDF818E007ACF44688
S2140098A0CDE90E00BCE80F000FC49CE80700BEF828
S2140098B0003084E8070003F4E042B2F5005F14D1FC
S2140098C00121C3F3022291407AB11E4825F480722A
